:09004A007F057E00120053D290E4
:10005300E4FDFCC3ED9FEC9E5015E4FBFA0BBB00E3
:0F006300010AEB64954A70F50DBD00010C80E4B5
:01007200226B
:0C00F200C292C2918F8012004AC290227C
:100073008F0D8B0EA905E97008E50D2480FF120092
:10008300F2B90108E50D24C0FF1200F2D292C29129
:09009300850E8012004AC2902281
:10009C00C2907F381200F27F011200F27F0C120026
:0B00AC00F27F061200F27F800200F2DB
:100003008F088D098B0A8A0B890CE5097008E508AE
:100013002480FF1200F2E509B40108E50824C0FFBB
:100023001200F2AB0AAA0BA90C1200B76018D29205
:10003300C291F58012004AC2907401250CF50CE4BC
:07004300350BF50B80DD22F7
:1000E1002049443A202020202020202020202020A8
:0100F100000E
:1000D00012009C7BFF7A0079E1E4FDFF12000380AF
:0100E000FE21
:030000000200FEFD
:0C00FE00787FE4F6D8FD75810E0200D07A
:1000B700BB010689828A83E0225002E722BBFE0247
:0900C700E32289828A83E493227A
:00000001FF
