:0A003300C2918F80D2907F057E00FD
:10003D00E4FDFCC3ED9FEC9E5015E4FBFA0BBB00F9
:0F004D00010AEB64954A70F50DBD00010C80E4CB
:01005C002281
:0A009C00C290C292120033C29022FB
:0A00A600C290D292120033C29022E1
:10007C007F3012009C7F0C12009C7F0112009C7F31
:04008C008002009C52
:020003008B0868
:10000500ED14601014601314601624037016EF24A9
:1000150080F98010EF2490F9800AEF2488F9800494
:0E002500EF2498F9AF0112009CAF080200A66C
:10005D0012007C7B4EE4FDFF1200037B487D01E422
:0F006D00FF1200037B217D02E4FF12000380FEDF
:030000000200906B
:0C009000787FE4F6D8FD75810802005D61
:00000001FF
