:06037400C2A0C2A2D2A04B
:10037A007B087A00EF1392A1D2A2C2A2EFC313FFA5
:09038A00EB1B70011AEB4A70EB49
:010393002247
:1003B400E4FFFEC2A230A10D7401A806088002C3A6
:0B03C40033D8FC4207D2A20EBE08E8AE
:0103CF00220B
:0F040600AE05120374AF0612037AD2A2C2A0226F
:0A042D001203741203B4D2A2C2A09D
:0104370022A2
:1002BE00E4FD7F8E1204067F841204067F821204F0
:1002CE00067D127F841204067D237F861204067D2E
:1002DE00127F881204067D057F8A1204067D117F27
:1002EE008C120406E4FD7F801204067D807F8E0250
:0202FE000406F4
:0601DB008B248A25892611
:1001E100752780E4FD7F8E120406E4FCAB24AA256A
:1001F100A92612024FF975F00A12022DC454F0FF1C
:10020100E975F00A12022DAEF0EF2EF9FDAF2712BB
:10021100040674012526F526E43525F5250527056F
:0C022100270CBC07C77D807F8E020406FE
:06027A008B248A25892671
:100280007D81E4FCAF0512042DAB24AA25A926EF3D
:10029000120268AB24AA25A92612024FFFC4540FEC
:1002A00075F00AA4FEEF540F2E1202687401252681
:0D02B000F526E43525F5250D0D0CBC07C71E
:0102BD00221E
:090300007F057E00120309D29072
:10030900E4FDFCC3ED9FEC9E5015E4FBFA0BBB002A
:0F031900010AEB64954A70F50DBD00010C80E4FC
:0103280022B2
:0C041500C292C2918F80120300C290229C
:100329008F248B25A905E97008E5242480FF120490
:1003390015B90108E52424C0FF120415D292C2910F
:09034900852580120300C29022F8
:1003D000C2907F381204157F011204157F0C12049D
:0B03E000157F061204157F8002041533
:0B0438003031323334353637383900AC
:100352000708005016141007120B18323031322FD2
:1003620031302F313400090F31373A30313A3030E1
:01037200008A
:10039400E4FDFCC3ED9FEC9E5015E4FBFA0BBB009F
:0F03A400010AEB64954A70F50DBD00010C80E471
:0103B3002227
:100003001202BE1203D01203EB7B007A00790812AE
:1000130001DB75230374152523F8E6FBE4FDAF2309
:100023001203290523E523C3940D40E975230474C2
:100033000B2523F8E6FB7D01AF231203290523E5F6
:1000430023C3940C40E97B007A00790812027AE515
:100053000875F00A84E5F090043893FB7D017F0B6B
:10006300120329E50875F00A8490043893FB7D0197
:100073007F0A120329E50975F00A84E5F090043834
:1000830093FB7D017F08120329E50975F00A84902B
:10009300043893FB7D017F07120329E50A75F00AF3
:1000A30084E5F090043893FB7D017F05120329E575
:1000B3000A75F00A8490043893FB7D017F041203D0
:1000C30029E50B75F00A84E5F090043893FBE4FD11
:1000D3007F0C120329E50B75F00A8490043893FB17
:1000E300E4FD7F0B120329E50C75F00A84E5F0901B
:1000F300043893FBE4FD7F09120329E50C75F00A2C
:100103008490043893FBE4FD7F08120329E50E7500
:10011300F00A84E5F090043893FBE4FD7F061203B4
:1001230029E50E75F00A8490043893FBE4FD7F05FE
:10013300120329AF08120421AF091204217F091207
:0C01430004217F647E0012039402004936
:1003EB00E4F58775985053890F438920758BFD75FC
:0B03FB008DFDC2ABD28ED2ACD2AF227F
:0C042100C2AC8F993099FDC299D2AC2278
:070443003098FDAF99C2984B
:01044A00228F
:0300000002014FAB
:0C014F00787FE4F6D8FD75812702019648
:10022D00C2D530F707B2D563F0FF05F030E70CB259
:10023D00D5F4048463F0FF05F080018430D502F419
:02024D00042289
:10024F00BB010689828A83E0225002E722BBFE02AD
:09025F00E32289828A83E49322E0
:10026800BB010689828A83F0225002F722BBFE0175
:02027800F3226F
:10015B00020003E493A3F8E493A34003F68001F2B7
:10016B0008DFF48029E493A3F85407240CC8C333A5
:10017B00C4540F4420C8834004F456800146F6DF74
:10018B00E4800B0102040810204080900352E47EAF
:10019B00019360BCA3FF543F30E509541FFEE49369
:1001AB00A360010ECF54C025E060A840B8E493A330
:1001BB00FAE493A3F8E493A3C8C582C8CAC583CA5B
:1001CB00F0A3C8C582C8CAC583CADFE9DEE780BE13
:010373000089
:00000001FF
