:090003007F057E0012000CD29072
:10000C00E4FDFCC3ED9FEC9E5015E4FBFA0BBB002A
:0F001C00010AEB64954A70F50DBD00010C80E4FC
:01002B0022B2
:0C007D00C292C2918F80120003C2902238
:10002C008F088B09A905E97008E5082480FF1200E8
:10003C007DB90108E50824C0FF12007DD292C2915F
:09004C00850980120003C2902214
:10005500C2907F3812007D7F0112007D7F0C120057
:0B0065007D7F0612007D7F8002007D81
:0D0070001200557B48E4FDFF12002C80FEBD
:0300000002008972
:0C008900787FE4F6D8FD75810902007054
:00000001FF
