:0B07FE003031323334353637383900E3
:1005C7000709005016141007120108000711005000
:0805D7001614100712011000B8
:10002600E50F75F00A84E5F09007FE93FB853A82AA
:10003600853983E4FD7F03120525E50F75F00A84F3
:100046009007FE93FB853A82853983E4FD7F021291
:100056000525E50D75F00A84E5F09007FE93FB850E
:100066003A82853983E4FD7F06120525E50D75F094
:100076000A849007FE93FB853A82853983E4FD7FE7
:1000860005120525E50C75F00A84E5F09007FE9348
:10009600FB853A82853983E4FD7F09120525E50C47
:1000A60075F00A849007FE93FB853A82853983E4CE
:1000B600FD7F08120525E50E75F00A84E5F0900728
:1000C600FE93FB853A82853983E4FD7F0F12052571
:1000D600E50B75F00A84E5F09007FE93FB853A82FE
:1000E6008539837D017F05120525E50B75F00A84A8
:1000F6009007FE93FB853A828539837D017F041242
:100106000525E50A75F00A84E5F09007FE93FB8560
:100116003A828539837D017F08120525E50A75F047
:100126000A849007FE93FB853A828539837D017F99
:1001360007120525E50975F00A84E5F09007FE9398
:10014600FB853A828539837D017F0B120525E509FA
:1001560075F00A849007FE93FB853A828539837D84
:06016600017F0A020525DD
:1007C8007510017B007A00790985288285278312B4
:0807D8000525E4F510020026DE
:10016C00AA30A931120521AA2DA92E120521AA3CCB
:10017C00A93D120521AA24A925120521900800E405
:10018C0093FB853A82853983E4FDFF1205259007A0
:10019C00FEE493FB853A82853983E4FD7F011205E9
:1001AC0025853A828539837B2DE4FD7F0412052554
:1001BC00853A828539837B2DE4FD7F0712052585E1
:1001CC003A828539837B20E4FD7F0A120525853A26
:1001DC00828539837B44E4FD7F0B120525853A82A9
:1001EC008539837B61E4FD7F0C120525853A828578
:1001FC0039837B79E4FD7F0D120525853A8285399B
:10020C00837B3AE4FD7F0E120525853A828539837E
:10021C007B3A7D017F06120525853A828539837BE1
:10022C003A7D017F091205257B007A007909852B1F
:0A023C0082852A83120525020026A0
:0D040600AB20AA21A9221204F66401706A3D
:10041300AB1DAA1EA91F1204F6F54224F8603C2462
:10042300F0601024FC604424BE60162452703E0524
:100433000A803A050BE50BC394194031E4F50B80B0
:100443002C050CE50CC394204003E4F50C050EE5E4
:100453000EC394084017E4F50E8012050DE50DC395
:10046300940D4009E4F50D050F8002050F1207C82E
:0A047300AB20AA21A922E412050F14
:01047D00225C
:10047E00AA45A946120521EF604B24FE600E1460BA
:10048E00191460302403703A050A8036050BE50B0B
:10049E00C39419402DE4F50B8028050CE50CC3948C
:1004AE00204003E4F50C050EE50EC394084013E45A
:1004BE00F50E800E050DE50DC3940D4005E4F50D0A
:0504CE00050F1207C834
:0104D3002206
:10061100E4F540F54112016CD3E54194E0E54094E5
:100621002E4018E5107014FB7A007909852B82851C
:100631002A83120525120026E4F508120406120485
:100641007E0541E54170020540D394EAE540942ED0
:0906510040C6E4F540F54180BF0C
:030023000202E7EF
:1002E700C0E0C0F0C083C082C0D075D000C000C0DD
:1002F70001C002C003C004C005C006C007C2ACAF3E
:100307000874112FF8A699E508C39405403AE5113A
:1003170064797034E5126465702EE513647A702889
:10032700E514B46923AF1574092FF8A616E5107004
:1003370017751001FB7A00790985288285278312B2
:1003470005257510001200260508E508D394054019
:1003570003750800C298D2ACD007D006D005D004E8
:10036700D003D002D001D000D0D0D082D083D0F03B
:03037700D0E032A1
:0B05DF000926FF0527FF06A0FF057995
:06073600C2A0C2A2D2A085
:10073C007B087A00EF1392A1D2A2C2A2EFC313FFDF
:09074C00EB1B70011AEB4A70EB83
:010755002281
:10077600E4FFFEC2A230A10D7401A806088002C3E0
:0B07860033D8FC4207D2A20EBE08E8E8
:010791002245
:0F000300AE05120736AF0612073CD2A2C2A022EA
:0A080900120736120776D2A2C2A031
:0108130022C2
:100579007F81120809EF64807043FD7F8E120003AA
:100589007F841200037D457F821200037D087F84EA
:100599001200037D217F861200037D127F881200DD
:1005A900037D057F8A1200037D127F8C120003E40C
:0E05B900FD7F801200037D807F8E12000322E2
:060527008B408A4189426D
:10052D00754380E4FD7F8E120003E4FCAB40AA41CD
:10053D00A9421204F6F975F00A1204D4C454F0FF5E
:10054D00E975F00A1204D4AEF0EF2EF9FDAF4312A7
:10055D00000374012542F542E43541F5410543059B
:0C056D00430CBC07C77D807F8E0200039A
:0606A0008B408A418942F3
:1006A6007D81E4FCAF05120809AB40AA41A942EFDF
:1006B60012050FAB40AA41A9421204F6FFC4540F1B
:1006C60075F00AA4FEEF540F2E12050F7401254291
:0D06D600F542E43541F5410D0D0CBC07C7A0
:0106E30022F4
:0805EA000638FF070DFF079220
:0906E4007F057E001206EDD290A4
:1006ED00E4FDFCC3ED9FEC9E5015E4FBFA0BBB0043
:0F06FD00010AEB64954A70F50DBD00010C80E415
:01070C0022CA
:0C001600C292C2918F801206E4C29022B8
:10070D008F408B41A905E97008E5402480FF120058
:10071D0016B90108E54024C0FF120016D292C2910D
:09072D008541801206E4C290220D
:10079200C2907F381200167F011200167F0C1200E1
:0B07A200167F061200167F8002001672
:0505F2000344FF065A5E
:10075600E4FDFCC3ED9FEC9E5015E4FBFA0BBB00D9
:0F076600010AEB64954A70F50DBD00010C80E4AB
:010775002261
:10065A0030B70930B60630B50320B4377F0A7E00BA
:10066A0012075630B70930B60630B50320B4242035
:10067A00B70630B7FD7F012220B60630B6FD7F02ED
:10068A002220B50630B5FD7F032220B40630B4FD22
:06069A007F04227F002214
:0B05F700092FFF07ADFF07F2FF0814FB
:1007AD00E4F58775985053890F438920758BFD7536
:0B07BD008DFDC2ABD28ED2ACD2AF22B9
:0C07F200C2AC8F993099FDC299D2AC22A4
:070814003098FDAF99C29876
:01081B0022BA
:0E060200011C00091D00001A00001CFF081C4E
:07081C00D2AFD2AAC288226C
:1007E000AD071FED600BE4FEEEC3940D50F20E80DA
:0107F000F711
:0107F10022E5
:03001300020246A0
:10024600C0E0C0D075D000C000C004C005C006C064
:0102560007A0
:10025700753F00C2AA7F0F1207E030B304D2AA800D
:100267007020B3077F011207E080F6E4FC753E00BB
:1002770030B3077F011207E080F620B3077F011232
:1002870007E080F630B3127F011207E0053FE53F34
:10029700C3941E40EFD2AA803874182CF8C000E629
:1002A700C313D000F6E53FC39408400874182CF830
:1002B700E64480F6753F00053EE53EC3940840B02E
:1002C7000CEC640470A7E51BF4B51A03751C01D286
:0102D700AA7C
:0F02D800D007D006D005D004D000D0D0D0E0326F
:0300000002037A7E
:0C037A00787FE4F6D8FD7581460203C1CF
:1004D400C2D530F707B2D563F0FF05F030E70CB2B0
:1004E400D5F4048463F0FF05F080018430D502F470
:0204F4000422E0
:1004F600BB010689828A83E0225002E722BBFE0204
:09050600E32289828A83E4932236
:10050F00BB010689828A83F0225002F722BBFE01CB
:02051F00F322C5
:060521008A838982E47365
:10038600020611E493A3F8E493A34003F68001F276
:1003960008DFF48029E493A3F85407240CC8C33378
:1003A600C4540F4420C8834004F456800146F6DF47
:1003B600E4800B01020408102040809005C7E47E0B
:1003C600019360BCA3FF543F30E509541FFEE4933C
:1003D600A360010ECF54C025E060A840B8E493A303
:1003E600FAE493A3F8E493A3C8C582C8CAC583CA2E
:1003F600F0A3C8C582C8CAC583CADFE9DEE780BEE6
:0106100000E9
:00000001FF
