:0500EC001200F1D292A8
:0100F10022EC
:080028001200D87FA01200B6FF
:10003000D2921200F130930BE509C394FA500405F3
:080040000980F2C2920200F1F6
:0A00D800D2931200ECC2930200F173
:0A00E200C2931200ECD2930200F169
:1000B600E4FEEF25E0FFC29292931200EC0EBE081A
:0600C600F1C2920200F1FC
:10009D00C292E4FE1200ECEF25E0FFA293E433FDE3
:0800AD00C29242070EBE08ECEE
:0100B5002228
:10006800AC07120028AF041200B6120030AF051218
:0B00780000B61200301200E20200F19E
:02000300AD0747
:10000500120028AF051200B61200301200D87FA1E9
:100015001200B612003012009D1200F11200E21219
:0200250000F1E8
:0100270022B6
:10004800E4FDFCC3ED9FEC9E5015E4FBFA0BBB00EE
:0F005800010AEB647D4A70F50DBD00010C80E4D8
:010067002276
:100083007DAA7F031200687F017E001200487F0370
:0A0093001200038F0885088080FE2C
:030000000200CC2F
:0C00CC00787FE4F6D8FD758109020083FE
:00000001FF
